:100000000C9434000C9451000C9451000C94510049
:100010000C9451000C9451000C9451000C9451001C
:100020000C9451000C9451000C9451000C9451000C
:100030000C9451000C9451000C9451000C945100FC
:100040000C9451000C9451000C9451000C945100EC
:100050000C9451000C9451000C9451000C945100DC
:100060000C9451000C94510011241FBECFEFD8E026
:10007000DEBFCDBF11E0A0E0B1E0E0ECF2E102C0F4
:1000800005900D92A438B107D9F721E0A4E8B1E0BA
:1000900001C01D92AA38B207E1F70E9445030C94F3
:1000A0005E090C940000CF92DF92EF92FF920F93C3
:1000B0001F93A82F4115510521F40115110509F4CD
:1000C000A8C084EA8093BC008091BC0087FFFCCF6D
:1000D0008091B900887F883009F06BC08A2F8E7FAD
:1000E0008093BB0084E88093BC008091BC0087FFB4
:1000F000FCCF8091B900887F8831D1F0803209F03F
:1001000058C094E99093BC0054C081918093BB0087
:100110006093BC008091BC0087FFFCCF8091B90048
:10012000887F883249F0803309F043C080E3E9CF0B
:10013000FB01460F571F64E84E175F0731F7F901BF
:10014000020F131F24E80EC081918093BB002093FF
:10015000BC008091BC0087FFFCCF8091B900887FF4
:10016000883209F70E171F0779F720E1C114D1046F
:1001700011F43BC028E084EA8093BC008091BC006D
:1001800087FFFCCF8091B900887F281312C0A1603F
:10019000A093BB0084E88093BC008091BC0087FFE3
:1001A000FCCF8091B900887F803451F0883409F405
:1001B000A8CF1F910F91FF90EF90DF90CF900895FF
:1001C000F70194EC81E0C816D10489F484E88093A7
:1001D000BC008091BC0087FFFCCF8091B900887F74
:1001E000883539F78091BB00808380E08ACF909377
:1001F000BC008091BC0087FFFCCF8091B900887F54
:1002000021E0C21AD1088035A1F68091BB0081930C
:10021000D9CFC114D10409F0ADCF80E0CACF10927C
:10022000B9008093B80008959093C5008093C400EE
:10023000E1ECF0E080818860808380818061808350
:1002400086E08093C20008959091C00095FFFCCF96
:100250008093C6000895EF92FF920F931F93CF9360
:10026000DF938C017B01EC01CE01801B910B8E157D
:100270009F053CF0DF91CF911F910F91FF90EF9080
:10028000089589910E942401EFCF6F927F928F92FF
:100290009F92AF92BF92CF92DF92EF92FF920F9315
:1002A0001F93CF93DF936B017C01142F052F722EC8
:1002B000632E20E030E0A9010E941F05C8E6D1E0CE
:1002C00087FF06C0F7FAF094F7F8F094C2E3D1E0A4
:1002D000C701B6010E9424054B01072E000C880BB4
:1002E000990B0E945C059B01AC01C701B6010E94FD
:1002F000B20420E030E44CE156E40E940C060E9477
:1003000024057F936F939F928F92DF93CF9384E323
:1003100091E09F938F936F927F920F931F930E9410
:1003200079068DB79EB70C960FB6F8949EBF0FBE98
:100330008DBFDF91CF911F910F91FF90EF90DF90D4
:10034000CF90BF90AF909F908F907F906F900895C7
:100350008091C00087FFFCCF8091C6000895CF92A6
:10036000DF92EF92FF920F931F93CF93DF93CDB75E
:10037000DEB7C354D1090FB6F894DEBF0FBECDBFB0
:100380008DE024968FAF2497CC24C394D12CCE013A
:100390008E5B9F4F7C0110E000E030E020E041E008
:1003A00050E0BE016D5B7F4F8AE30E9453002396AD
:1003B0008FAD23978E010F5F1F4F8A3109F444C020
:1003C0001F928F938EE391E09F938F9380E691E04D
:1003D0009F938F931F9280E48F931F930F930E949C
:1003E000790660E470E0C8010E942B010FB6F89412
:1003F000DEBF0FBECDBF8AE224968FAF249789E17E
:1004000022968FAF2297D12CC12CF12CE12C01E048
:1004100010E09E012F5B3F4F41E050E0BE016D5B5D
:100420007F4F8AE30E945300CD5BDF4F0FB6F894F5
:10043000DEBF0FBECDBFDF91CF911F910F91FF9017
:10044000EF90DF90CF90089589E691E09F938F938E
:100450008FE791E09F938F931F9280E48F931F9378
:100460000F930E947906BDCF6F927F928F929F92D9
:10047000AF92BF92CF92DF92EF92FF920F931F93B2
:10048000CF93DF9300D000D000D01F92CDB7DEB75E
:100490003C014B015A0181E08F8386E0C82ED12CAC
:1004A000CE0101967C0110E000E030E020E041E068
:1004B00050E0BE01695F7F4F8AE30E94530089814B
:1004C000E0E48E9FC00111242A8126952695822B77
:1004D000F301918380838B81F0E48F9FC00111240D
:1004E0002C8126952695822BF401918380838D8122
:1004F000F0E48F9FC00111242E8126952695822B32
:10050000F50191838083F3018081918195FD906C49
:10051000F30191838083F4018081918195FD906C3A
:10052000F40191838083F5018081918195FD906C28
:10053000F5019183808327960FB6F894DEBF0FBE36
:10054000CDBFDF91CF911F910F91FF90EF90DF9082
:10055000CF90BF90AF909F908F907F906F900895B5
:100560008F929F92AF92BF92CF92DF92EF92FF92C3
:100570000F931F93CF93DF9300D000D000D0CDB75F
:10058000DEB78C01912C812CF12CE12CD12CC12CCB
:10059000B12CA12C801691065CF1C501B8010E9416
:1005A0008A047093890160938801C601B8010E9492
:1005B0008A047093870160938601C701B8010E9485
:1005C0008A04709385016093840126960FB6F8948F
:1005D000DEBF0FBECDBFDF91CF911F910F91FF9076
:1005E000EF90DF90CF90BF90AF909F908F90089545
:1005F000AE014F5F5F4FBE016D5F7F4FCE0105962D
:100600000E9434028D819E81A80EB91E8B819C812F
:10061000C80ED91E89819A819051E80EF91E8FEF7C
:10062000881A980AB7CFEF92FF920F931F93CF9338
:10063000DF937C018B01EA010E943402F701808183
:1006400091812091880130918901821B930B9183C4
:100650008083F8018081918120918601309187010A
:10066000821B930B918380838881998120918401DF
:1006700030918501821B930B99838883DF91CF9101
:100680001F910F91FF90EF900895CF93DF93CDB717
:10069000DEB7C454D1090FB6F894DEBF0FBECDBF8C
:1006A0008FE290E00E9414018DE10E940F018DE520
:1006B00025968FAF2597CC24C394D12CCE018F5B88
:1006C0009F4F7C0110E000E030E020E041E050E08E
:1006D000BE016C5B7F4F84EB0E9453008EE5259634
:1006E0008FAF259785E024968FAF2497D12CC12C0E
:1006F000F12CE12C01E010E09E012D5B3F4F41E029
:1007000050E0BE016C5B7F4F84EB0E94530081E49C
:1007100025968FAF259724961FAE24979E012D5BBB
:100720003F4F41E050E0BE016C5B7F4F84EB0E9485
:10073000530082E425968FAF25978AE024968FAFE9
:1007400024979E012D5B3F4F41E050E0BE016C5B62
:100750007F4F84EB0E94530084E025968FAF25974E
:1007600032E0C32ED12CCE018F5B9F4F7C0110E075
:1007700000E030E020E041E050E0BE016C5B7F4FE4
:1007800084EB0E9453002296AFAC229723969FAC35
:1007900023978EE125968FAF2597CC24C394D12C37
:1007A00030E020E041E050E0BE016C5B7F4F84EB25
:1007B0000E9453002296BFAC229725961FAE259724
:1007C00030E020E041E050E0BE016C5B7F4F84EB05
:1007D0000E9453009F92AF921F92BF9222968FADBC
:1007E00022971F928F9380E091E09F938F931F92A7
:1007F00080E48F93CE0101965C019F938F930E94BA
:10080000790660E470E0C5010E942B010FB6F894F0
:10081000DEBF0FBECDBF50E0452E51E0552E60E447
:10082000962E76E1672E71E0772E9FEF2FE382E020
:10083000915020408040E1F700C0000094E02596F0
:100840009FAF259782E0C82ED12CCE018F5B9F4FA2
:100850007C0110E000E030E020E041E050E0BE012B
:100860006C5B7F4F84EB0E94530022963FAC229733
:1008700023962FAC23979EE125969FAF2597CC24F6
:10088000C394D12C30E020E041E050E0BE016C5B2D
:100890007F4F84EB0E94530022968FAC22972596BF
:1008A0001FAE259730E020E041E050E0BE016C5BD8
:1008B0007F4F84EB0E9453002F923F921F928F92A2
:1008C00022968FAD22971F928F935F924F921F9225
:1008D0009F92BF92AF920E94790660E470E0C501DA
:1008E0000E942B0122968FAD22971F928F937F92A9
:1008F0006F921F929F92BF92AF920E94790660E41E
:1009000070E0C5010E942B010FB6F894DEBF0FBE48
:10091000CDBF8BCF97FB072E16F4009407D077FD41
:1009200009D00E949E0407FC05D03EF49095819565
:100930009F4F0895709561957F4F0895AA1BBB1B2B
:1009400051E107C0AA1FBB1FA617B70710F0A61BCF
:10095000B70B881F991F5A95A9F780959095BC01F0
:10096000CD0108955058BB27AA270E94CA040C94B1
:10097000D2050E94C40538F00E94CB0520F039F45E
:100980009F3F19F426F40C94C1050EF4E095E7FBA3
:100990000C94BB05E92F0E94E30558F3BA176207D0
:1009A00073078407950720F079F4A6F50C940506E3
:1009B0000EF4E0950B2EBA2FA02D0B01B90190017A
:1009C0000C01CA01A0011124FF27591B99F0593FBE
:1009D00050F4503E68F11A16F040A22F232F342F06
:1009E0004427585FF3CF469537952795A795F04054
:1009F0005395C9F77EF41F16BA0B620B730B840B69
:100A0000BAF09150A1F0FF0FBB1F661F771F881F20
:100A1000C2F70EC0BA0F621F731F841F48F4879578
:100A200077956795B795F7959E3F08F0B0CF93956A
:100A3000880F08F09927EE0F9795879508950E94E3
:100A4000970508F481E008950E942B056894B11180
:100A50000C94060608950E94EB0588F09F5798F0C5
:100A6000B92F9927B751B0F0E1F0660F771F881FB3
:100A7000991F1AF0BA95C9F714C0B13091F00E94CD
:100A80000506B1E008950C940506672F782F882796
:100A9000B85F39F0B93FCCF3869577956795B395F4
:100AA000D9F73EF490958095709561957F4F8F4F63
:100AB0009F4F0895E89409C097FB3EF49095809568
:100AC000709561957F4F8F4F9F4F9923A9F0F92F14
:100AD00096E9BB279395F695879577956795B79592
:100AE000F111F8CFFAF4BB0F11F460FF1BC06F5F78
:100AF0007F4F8F4F9F4F16C0882311F096E911C08A
:100B0000772321F09EE8872F762F05C0662371F0AA
:100B100096E8862F70E060E02AF09A95660F771FBE
:100B2000881FDAF7880F9695879597F90895990F9A
:100B30000008550FAA0BE0E8FEEF16161706E807A7
:100B4000F907C0F012161306E407F50798F0621BC8
:100B5000730B840B950B39F40A2661F0232B242B9D
:100B6000252B21F408950A2609F4A140A6958FEFBC
:100B7000811D811D089597F99F6780E870E060E00E
:100B800008959FEF80EC089500240A941616170626
:100B900018060906089500240A941216130614066E
:100BA00005060895092E0394000C11F4882352F0D1
:100BB000BB0F40F4BF2B11F460FF04C06F5F7F4F89
:100BC0008F4F9F4F089557FD9058440F551F59F070
:100BD0005F3F71F04795880F97FB991F61F09F3F2A
:100BE00079F087950895121613061406551FF2CF53
:100BF0004695F1DF08C0161617061806991FF1CFA3
:100C000086957105610508940895E894BB276627C9
:100C10007727CB0197F908950E941F060C94D205FF
:100C20000E94C40538F00E94CB0520F0952311F0F6
:100C30000C94BB050C94C10511240C9406060E946B
:100C4000E30570F3959FC1F3950F50E0551F629F28
:100C5000F001729FBB27F00DB11D639FAA27F00D15
:100C6000B11DAA1F649F6627B00DA11D661F829F3C
:100C70002227B00DA11D621F739FB00DA11D621F21
:100C8000839FA00D611D221F749F3327A00D611D3E
:100C9000231F849F600D211D822F762F6A2F112420
:100CA0009F5750409AF0F1F088234AF0EE0FFF1F53
:100CB000BB1F661F771F881F91505040A9F79E3FAA
:100CC000510580F00C94BB050C9406065F3FE4F3DD
:100CD000983ED4F3869577956795B795F795E79500
:100CE0009F5FC1F7FE2B880F911D9695879597F909
:100CF0000895AEE0B0E0EFE7F6E00C9435090D8919
:100D00001E898F89988D26E02C831A83098397FF8B
:100D100002C080E090E801979E838D83AE01455E1E
:100D20005F4F698D7A8DCE0101960E94A9064D8193
:100D30005E8157FD0AC02F813885421753070CF496
:100D40009A01020F131FF80110822E96E4E00C9412
:100D50005109ABE0B0E0EFEAF6E00C9427097C0122
:100D60003B018A01FC0117821682838181FFC8C181
:100D7000CE0101965C01F7019381F30193FD85910A
:100D800093FF81913F01882309F453C1853239F4DF
:100D900093FD859193FF81913F01853229F4B7013D
:100DA00090E00E949908E7CF912C212C312CFFE193
:100DB000F31538F08B3211F190F4803209F183325F
:100DC00029F137FC3CC020ED280F2A3050F536FEC3
:100DD00020C08AE0989E200D1124922E06C08D32EC
:100DE00091F0803371F7689430F8F30193FD8591A9
:100DF00093FF81913F018111DACF21C0689431F8CE
:100E0000689432F8F2CF689433F8EFCF689434F8EE
:100E1000ECCFEAE02E9E200D1124222E689435F8A6
:100E2000E4CF8E3229F436FC04C1689436F8DDCF65
:100E30008C3619F4689437F8D8CF8836B1F2982FE9
:100E40009F7D95549330E0F08336A1F18337C1F153
:100E5000833509F063C02801F2E04F0E511CF80100
:100E6000C080D180692D70E036FC02C06FEF7FEF4B
:100E7000C6010E9483084C01689437F882010AC0B9
:100E80000C5F1F4FFFE3F98388248394912C650145
:100E9000E89437F833FE2DC0522C8114910471F57B
:100EA000552009F468CFB70180E290E00E949908CC
:100EB0005A94F6CFF801808189830E5F1F4FE4CFEB
:100EC0002801F2E04F0E511CF801C080D180692D3D
:100ED00070E036FC02C06FEF7FEFC6010E948E0803
:100EE0004C018201D5CFB70180E290E00E949908C1
:100EF0002A942814190409F0B0F7CECFF60137FC74
:100F0000859137FE81916F01B70190E00E949908A9
:100F100051105A94F1E08F1A9108BFCF843619F01E
:100F2000893609F077C0F80137FE6BC060817181A6
:100F3000828193810C5F1F4FF32DFF763F2E97FF29
:100F400009C090958095709561957F4F8F4F9F4F09
:100F5000689437F82AE030E0A5010E94C908C82E3D
:100F6000CA188C2C432C36FE0CC0E89440F8C914E7
:100F700040F434FE05C032FC03C0F32DFE7E4F2E3C
:100F8000892C44FE95C0FE01EC0DF11D808180335B
:100F900009F087C0242D297E422E842D8870582E7A
:100FA00043FC95C040FE8FC09C2C821418F42C0C7E
:100FB000922C981844FE91C0B70180E390E00E9403
:100FC000990842FE09C088E790E041FE02C088E52A
:100FD00090E0B7010E949908C91408F48AC0CA9425
:100FE000D12C9FEFC91AD90ACA0CDB1CF6018291D9
:100FF0006F01B70190E00E949908AC14BD04B1F7ED
:101000004FCF60817181072E000C880B990B0E5F0A
:101010001F4F92CFD32CE894D4F82AE030E08537E4
:1010200039F1232D297FD22E8F3601F148F48835EE
:10103000A9F0F701868197812B96E2E10C94430990
:10104000803749F08837A9F7D4FE02C06894D2F8F7
:1010500020E130E00DC06894D4F8F6CF34FE03C030
:10106000822F8660D82E20E132E002C028E030E0F6
:10107000F801D7FE0FC060817181828193810C5F7E
:101080001F4FA5010E94C908C82ECA183D2CE8941C
:1010900037F867CF6081718190E080E00E5F1F4F6D
:1010A000F0CF42FC02C0839478CF8394839475CFB1
:1010B000842D867809F471CFF6CFB70180E290E0F5
:1010C0000E94990883948214C0F3512C73CF522C40
:1010D0005818821408F46ECFF8CF842D867809F45E
:1010E0007BCF8BE241FE80E247FC8DE2B70190E0CE
:1010F00071CFB70180E390E00E9499089A946CCF79
:101100008FEF9FEF99CFFC01059061507040011067
:10111000D8F7809590958E0F9F1F0895FC01615020
:10112000704001900110D8F7809590958E0F9F1F09
:1011300008950F931F93CF93DF93182F092FEB017F
:101140008B8181FD09C01FEF0FEF812F902FDF9161
:10115000CF911F910F91089582FF14C02E813F817E
:101160008C819D81281739073CF4E881F981CF01F2
:1011700001969983888310838E819F8101969F8336
:101180008E83E3CFE885F985812F0995892BA1F31B
:10119000DACFFA01AA27283051F1203181F1E89401
:1011A0006F936E7F6E5F7F4F8F4F9F4FAF4FB1E05A
:1011B0003ED0B4E03CD0670F781F891F9A1FA11D55
:1011C000680F791F8A1F911DA11D6A0F711D811D56
:1011D000911DA11D20D009F468943F912AE0269F1B
:1011E00011243019305D3193DEF6CF010895462F7A
:1011F0004770405D4193B3E00FD0C9F7F6CF462F5B
:101200004F70405D4A3318F0495D31FD40524193C3
:1012100002D0A9F7EACFB4E0A69597958795779580
:101220006795BA95C9F700976105710508959B0107
:10123000AC010A2E06945795479537952795BA9590
:10124000C9F7620F731F841F951FA01D08952F9269
:101250003F924F925F926F927F928F929F92AF9246
:10126000BF92CF92DF92EF92FF920F931F93CF9393
:10127000DF93CDB7DEB7CA1BDB0B0FB6F894DEBF2A
:101280000FBECDBF09942A88398848885F846E8450
:101290007D848C849B84AA84B984C884DF80EE809A
:1012A000FD800C811B81AA81B981CE0FD11D0FB6A3
:1012B000F894DEBF0FBECDBFED010895F894FFCFC7
:1012C000543A2025582C20623A2025642C20663A76
:1012D0002025640A0D004361706163697469766555
:1012E00020746F75636820646174613A2025580A20
:1012F0000D002D00257325642E25303464004661D1
:10130000696C656420746F20696E6974206D6D610D
:10131000383534312E20494420526561643A20002A
:1013200025732C2025580A0D006D6D613835343138
:1013300020696E697420737563636573732E00256D
:04134000730A0D001F
:00000001FF
